:020000040800F2
:10000000F8070020252A0008BD030008BF030008E8
:10001000C3030008C7030008CB030008000000006A
:10002000000000000000000000000000CF030008F6
:10003000D103000800000000D3030008D503000826
:100040003F2A00083F2A00083F2A00083F2A0008EC
:100050003F2A00083F2A00083F2A00083F2A0008DC
:100060003F2A00083F2A00083F2A00083F2A0008CC
:100070003F2A00083F2A00083F2A00083F2A0008BC
:100080003F2A00083F2A00083F2A00083F2A0008AC
:10009000D70300083F2A00083F2A00083F2A00082B
:1000A0003F2A00083F2A00083F2A00083F2A00088C
:1000B0003F2A00083F2A00083F2A00083F2A00087C
:1000C0003F2A00083F2A00083F2A00083F2A00086C
:1000D0003F2A0008DF0300083F2A00083F2A0008E3
:1000E0003F2A00083F2A00083F2A00083F2A00084C
:1000F0003F2A00083F2A00083F2A00083F2A00083C
:100100003F2A00083F2A00083F2A00083F2A00082B
:100110003F2A00083F2A00083F2A00083F2A00081B
:100120003F2A00083F2A00083F2A00083F2A00080B
:1001300000F002F800F05CF80AA090E8000C82449D
:100140008344AAF10107DA4501D100F051F8AFF27A
:10015000090EBAE80F0013F0010F18BFFB1A43F0A5
:1001600001031847802A0000A02A00000A444FF02B
:10017000000C10F8013B13F0070408BF10F8014B06
:100180001D1108BF10F8015B641E05D010F8016B4B
:10019000641E01F8016BF9D113F0080F1EBF10F8AF
:1001A000014BAD1C0C1B09D16D1E58BF01F801CBD2
:1001B000FAD505E014F8016B01F8016B6D1EF9D555
:1001C0009142D6D37047000000230024002500266A
:1001D000103A28BF78C1FBD8520728BF30C148BFAA
:1001E0000B6070471FB502F09CFC1FBD10B510BD21
:1001F00002F05AFC1146FFF7F5FF00F0BFF802F0DD
:1002000078FC03B4FFF7F2FF03BC02F083FC0000AC
:1002100008B50121182002F0B2FA4FF40050ADF8F1
:10022000000003208DF8020010208DF803006946BD
:100230004C4801F0F1FF2020ADF8000003208DF8BC
:10024000020010208DF803006946474801F0E4FFE2
:100250004FF40051434802F08AF82021424802F04E
:1002600086F808BD10B502F05BFBFFF7D1FF10BDAB
:1002700010B5002002F0E8F90121C80502F08CFA5F
:1002800010BD7047704708B54FF4C06001F0E8FE3C
:1002900014208DF8000000208DF801008DF8020078
:1002A00001208DF80300684601F0DFFE08BD10B59F
:1002B00004462CB14FF400512A4802F05AF804E0E9
:1002C0004FF40051274802F052F810BD704701204A
:1002D00070477047704770B505463C242246C021E0
:1002E000284601F01BFA2146012001F08AFC01207A
:1002F00001F0F5FA70BD70B50446204602F0B2FB7D
:1003000085B22A46C021204601F008FA204602F0B4
:10031000A9FB85B22946012001F073FC012001F000
:10032000DEFA70BD10B5114B1868114BD3F8EC17FD
:10033000104B1A68A8B1104CA070030A2371030C6B
:10034000A371030E2372A1720B0A23730B0CA37308
:100350000B0E2374A274130A2375130CA375130ECA
:10036000237610BD00100140000C0140E8F7FF1F8C
:1003700000F0FF1FF0F7FF1F00000020FFF772FFE3
:10038000FFF776FFFFF77FFF01F010F807E004A00A
:10039000FFF7B1FF084C00BF601E0400FCD1F6E778
:1003A000555342CAB5D1E9A1AAD0E9C4E2B4AEBF5F
:1003B000DAA3A1A3A10D0A0080969800704700BFA0
:1003C000FEE700BFFEE700BFFEE700BFFEE77047A5
:1003D00070477047704710B500F012F810BD7047B5
:1003E00010B50649032001F01DFE84B20348FFF753
:1003F00082FF032001F08BFA10BD70473C01002002
:1004000010B518480068184908800846008800F4AC
:10041000806016490988084206D04FF6FF3011491E
:1004200008601349486880470F48008800F400704E
:100430000E490988084209D04FF6FF500949086063
:100440000C48007800F101000A490870064800884D
:1004500000F4004005490988084201D000F0C4FFBB
:1004600010BD0000445C0040580000200A0100203C
:100470006C0000201C00002010B5FFF753FF002087
:1004800089490968887200F029F9002087490860C5
:100490004FF4064086490880084600888549C1F81F
:1004A000400CFFF713FF00208349086010BD10B512
:1004B00000207D49096888728048C0797A490968B6
:1004C0004872002078490968C87201F06CF94FF44D
:1004D0000071002001F07FF91021002001F094F953
:1004E0004021002001F067FB8021002001F057FB34
:1004F000002001F04AFA724890F82C10002001F018
:10050000A3FB002001F003FA0021012001F063F9B0
:10051000C021012001F043FB2021012001F074F9EA
:100520000021012001F08FF94FF4C061022001F099
:1005300052F94FF48071022001F031FB00210220BA
:1005400001F081F92021022001F05EF90021032051
:1005500001F041F94FF48871032001F02CFB402198
:10056000032001F071FB4FF44051032001F06BF9BF
:100570000021032001F048F9002000F086FE012050
:100580004D49086010BD4F48817A11B105214A4A92
:1005900011607047042048490860704710B54A4808
:1005A0000078202804D1FFF792FE00204649087009
:1005B00010BD7047014629B908203B4A12681082D5
:1005C000002070474148FCE7014629B90820364A17
:1005D00012681082002070473C48FCE770B5044662
:1005E0000025212C09D130480068007800F07F00F8
:1005F000212810D1AFF22F050DE0202C0BD12A4875
:100600000068007800F07F00212801D1AFF25B057F
:1006100020202D4908700DB9022070BD22480068C5
:10062000856100212048006841820020A847002001
:10063000F3E701461C480068007800F07F0021289D
:1006400007D1022901D100207047222901D10020C1
:10065000FAE70220F8E710B504461D49204600F0ED
:1006600008FB10BD10B504461A49204600F001FBF6
:1006700010BD70B505460C480068C478042C01DD37
:10068000002070BD144800EBC401284600F0F1FAC8
:10069000F7E70246002901DD02207047012A01DD4B
:1006A0000220FAE70020F8E700010020445C004047
:1006B0000A01002000500040F0000020422B0008FA
:1006C0006C0000207C0100205C0000206000002005
:1006D000C0000020C8000020D000002010B501207C
:1006E000FFF7E5FD0124544804604FF00000534932
:1006F0000880084600885249C1F8400C4FF00000BD
:10070000504908604FF4E0504C4908800846008882
:100710004B49C1F8400C4FF0000010BD10B501204E
:10072000454908604FF000004549C1F8440CFFF707
:10073000BEFD0320404908604FF0000010BD10B519
:100740003D48006884B244F008043D48C0F8404C7D
:100750003948006884B244F004043948C0F8404C79
:10076000FFF78FFD10BD10B53348006884B224F048
:1007700004043348C0F8404CFFF784FD4FF40640B2
:100780002D49086010BD70B50546072D01D02E48D3
:1007900005702D480078082846D2DFE800F0040AEA
:1007A000101621314647FFF7DEFF06202649087064
:1007B00040E0FFF7D8FF0420234908703AE0022008
:1007C000214948700320087034E01F484078401EDB
:1007D0001D4948700846407808B90420087029E08F
:1007E0001548006884B244F010041548C0F8404C25
:1007F0004FF00500144908704FF00A00487019E0E6
:1008000011484078401E104948700846407850B959
:100810000948006884B224F010040948C0F8404C2C
:100820004FF00600087005E000BF00BF0620064933
:10083000087000BF00BF70BD405C00400A0100208E
:1008400000500040445C0040F500002010B5044614
:100850002CB90120F84909680882002010BDF74929
:10086000096808688047F44800680A30F6E710B560
:10087000F1480068C078F2494978884213DCEE48B4
:100880000068807878B9EC480068808858B9EA48F0
:100890000068C078E84909688872E84909684868CA
:1008A0008047002010BD0220FCE710B504462CB99B
:1008B0000120E14909680882002010BDDF4909686C
:1008C00088688047DC4800680C30F6E710B5DA4BE2
:1008D0001B68D978D84B1B685879DA4B1B689A6922
:1008E00090470446D4480068807AE8B13CB9D248C1
:1008F0000068007918B9D0480068807808B10220F3
:1009000010BD8CB9CD490968C8688047CA480068DD
:100910004079C9490968C872C7480068C078C649A3
:10092000096808730020EBE70220E9E710B50446E8
:100930002CB90220C04909680882002010BD00209F
:10094000C1490880BC480068007810F07F0F23D1AF
:10095000B9490968487A10F0200F06D0BA490978D9
:1009600041F00201B84A117005E0B749097801F079
:10097000FD01B54A117010F0400F06D0B249097858
:1009800041F00101B04A117005E0AF49097801F06A
:10099000FE01AD4A11703AE0A7480068007800F007
:1009A0007F00012801D1A848C8E7A3480068007863
:1009B00000F07F00022828D19F4A1268517901F087
:1009C0000F0011F0800F0FD0A04A02EB8002D2F886
:1009D000002C02F03002102A16D19B4A127842F005
:1009E0000102994B1A700FE0984A02EB8002D2F88C
:1009F000002C02F44052B2F5805F05D1924A127881
:100A000042F00102904B1A7001E0002096E78B49FA
:100A10000968086980478C4890E72DE9F0478648C7
:100A20000068007800F07F08B8F1000F0AD1824812
:100A30000068407A00F0DF007F49096848720020B2
:100A4000BDE8F087B8F1020F7ED17B48006840888E
:100A500018B979480068007908B10220F0E7DFF89A
:100A6000E09175480068477927F080052C46724868
:100A70000068407910F0800F07D0744800EB8400C4
:100A8000D0F8000C00F0300606E0704800EB84005F
:100A9000D0F8000C00F4405699F80000A84204D9A0
:100AA0001EB165480068807A08B90220C8E717F0CF
:100AB000800F10D0654800EB8400D0F8000C00F0E7
:100AC000300010284DD1E0B201F027F83021E0B21B
:100AD00000F09AFE45E05D4800EB8400D0F8000C81
:100AE00000F44050B0F5805F3BD1ECB9584890F825
:100AF0002C10E0B201F0A8F8544901EB8401D1F8C0
:100B0000001C89B24BF68F7201EA020080F480501B
:100B100080F4005040F4004141F080014B4A02EB68
:100B20008402C2F8001C1CE0E0B200F0DCFF474980
:100B300001EB8401D1F8001C89B24BF68F7201EAF7
:100B4000020080F4805000E011E080F4005040F496
:100B5000004141F080013D4A02EB8402C2F8001CD2
:100B600000BF3649096848698047002068E700BF30
:100B7000022065E72DE9F0412F480068467926F00C
:100B800080073C462C480068407910F0800F07D061
:100B90002E4800EB8400D0F8000C00F0300506E091
:100BA0002A4800EB8400D0F8000C00F4405524489B
:100BB0000078A04208D920480068408820B91DB1BB
:100BC0001D480068807A10B90220BDE8F08116F057
:100BD000800F15D01D4901EB8401D1F8001C89B2AA
:100BE00048F6BF7201EA020080F0100040F40041B4
:100BF00041F08001154A02EB8402C2F8001C15E0A6
:100C0000124901EB8401D1F8001C89B24BF68F72B6
:100C100001EA020080F4805040F4004141F080017C
:100C20000A4A02EB8402C2F8001C00BF03490968AB
:100C3000886980470020C8E7000100200C010020DF
:100C40006800002004010020FA000020005000404D
:100C50006C00002010B5F8480068407A40F0200091
:100C6000F54909684872F5490968C8698047002054
:100C700010BD10B50246F0480068438A32B9888832
:100C8000C01AED4C24682082002010BD086818446A
:100C9000FBE72DE9F041E848006800F110042688E0
:100CA000A068C0B1BEB1A588B54200D93546A8B28A
:100CB000A168884707462088401B20806088284418
:100CC0006080002000F090FF8046AAB201463846BE
:100CD00000F03EFD00BF208850B14FF44050D8498D
:100CE00008800021084600F08CFF3020D54908809C
:100CF0002088A188884204DB0320CF490968087254
:100D00001AE02088002804DD0520CB490968087214
:100D100012E0208880B90620C749096808720021BE
:100D2000C948006880B200F10200C84A42F81010B9
:100D30004FF03000C3490880BDE8F0812DE9F0474D
:100D4000BD48006800F110052E88BB480068077A8E
:100D5000EEB9042F1BD1BE480078012812D1002122
:100D6000B948006880B200F10200B84A42F8101099
:100D70004FF03000B349088000BF4FF00000B44985
:100D8000087003E007271020AE49088027E0AC88F0
:100D9000A64201D8042000E002200746B44200D950
:100DA0003446A0B2A96888478046002000F011FFB1
:100DB0008146A2B20146404600F0B0FCA1B200203C
:100DC00000F01FFF2888001B288068882044688066
:100DD00030209C49088000029949088000BF96494C
:100DE00009680F72BDE8F08770B502269248006866
:100DF000447891480068007810F07F0F44D1092CA6
:100E000003D1FFF734FD06465FE0052C14D18A4874
:100E10000068C0787F280BDC87480068807838B984
:100E200085480068808818B983480068807A08B1CE
:100E3000082567E0002648E0032C0ED17E480068B4
:100E4000C078012807D17C480068808818B9FFF76E
:100E500001FF064639E0022637E0012C35D17648FD
:100E60000068C07801280DD173480068808848B9AF
:100E700071480068407A10F0200F03D0FFF7CDFDD5
:100E8000064622E0022620E06B480068007800F069
:100E90007F00012805D10B2C17D1FFF717FD06465F
:100EA00013E065480068007800F07F0002280BD14D
:100EB000012C03D1FFF7B1FD064606E0032C04D157
:100EC000FFF758FE064600E002264EB16148006872
:100ED0004169E0B288470646032E01D1092511E099
:100EE0000EB108250EE0062500215748006880B2A3
:100EF00000F10200554A42F810104FF030005149FD
:100F0000088000BF4C4909680D7270BD2DE9F05F83
:100F10004948006845780027BA46062D1AD1464848
:100F20000068007810F07F0F13D143490968887872
:100F3000012803D147490968CF690AE0022803D193
:100F4000444909680F6A04E0032802D1414909684D
:100F50004F6AAAE085BB38480068408860BB3648C5
:100F60000068C08802285BD133480068007918BB4C
:100F700031480068007810F07F0F06D12E480068D5
:100F8000808810B9AFF25B678FE02B48006800786B
:100F900000F07F00012810D12749096848792D49C0
:100FA00009688A6900219047C8BB23480068807A95
:100FB000A8B3AFF2876778E032E01F480068007896
:100FC00000F07F00022870D11B480068407900F0D3
:100FD0000F0619480068407900F07009164800684B
:100FE000407910F0800F07D01B4800EB8600D0F846
:100FF000000C00F0300806E0174800EB8600D0F83F
:10100000000C00F4405815480078B0424DD9B9F1B1
:10101000000F4AD1B8F1000F47D0AFF2EF6744E0BC
:10102000082D1DD104480068007810F07F0F3CD1D6
:10103000AFF2E77739E00000000100200C0100204A
:101040001001002012010020505C004000600040B0
:10105000F80000200401002000500040680000203B
:101060000A2D22D1C5480068007800F07F000128D1
:101070001BD1C2480068807AB8B1C0480068408877
:1010800098B9BE480068007978B9BC480068C08843
:1010900001280AD1B94909684879B94909688A69B2
:1010A0000021904708B9AFF2FD7757B1B348006807
:1010B000A0F812A0B148006887610020B84700245A
:1010C0000FE0AE4A12685078AD4A1268116988473D
:1010D0000446032C05D10920A84909680872BDE817
:1010E000F09FA6480068008AA0F57F41FF3904D12F
:1010F0000920A24909680872F1E7022C03D09F4831
:101100000068008A20B908209C4909680872E6E74F
:101110009A480068007810F0800F3BD0974800682C
:10112000B0F806B095480068008A584504D993493C
:101130000968A1F810B023E090480068008A8F4940
:101140000968C98888421BDA8C480068008A8C4983
:10115000096891F82C10884203DA00208949087048
:101160000EE086480068008A8549096891F82C10CD
:1011700090FBF1F201FB120010B9012081490870C7
:101180007F48006890F82C107C4800688182FFF747
:10119000D5FD06E0032079490968087200037A4901
:1011A000088000BF9BE710B5784890F82C1000200D
:1011B00000F04AFD71480068007A082805D1400215
:1011C000714908801020724908806C480068007AD4
:1011D000092801D1012000E00020C0B210BD38B5BF
:1011E00001246C48006880B200F104006A4951F89B
:1011F000100080B201EB4000009060480068007A67
:10120000092832D0009800785C4909680870009875
:10121000401C009000980078584909684870009870
:10122000401C0090009800EB44000090009931F8B9
:10123000020B009100F0C8FE5049096848800098F0
:1012400000EB44000090009931F8020B009100F08F
:10125000BBFE4A4909688880009800EB4400009072
:101260000098008845490968C880012043490968F9
:10127000087242480068C08810B9FFF7B5FD01E068
:10128000FFF744FEFFF78FFF38BD30B50146434BF3
:101290001A78002015E00306414C04EB9353D3F871
:1012A000003C9BB248F68F74234048F280042343ED
:1012B000C4B2234304063A4D05EB9454C4F8003CF1
:1012C000401C9042E7D341F08003364C236030BD90
:1012D00010B52A480068047A022C01D0042C05D1EC
:1012E000FFF72CFD25480068047A1CE0062C19D174
:1012F00022480068407805280ED120480068007810
:1013000010F07F0F08D11D490968C878FFF7BDFFAD
:1013100025490968086A804719490968886880472B
:10132000082400E00824154909680C72FFF73BFF08
:1013300010BD10B511480068047A022C01D0042CAD
:1013400001D1082412E0032C01D0052C05D1FFF7B0
:10135000A0FC0A480068047A08E0072C05D1084977
:101360000968C8688047082400E008240349096820
:101370000C72FFF718FF10BD70470000000100203D
:1013800004010020F8000020100100206C00002063
:1013900012010020505C0040006000406800002006
:1013A000005000404C5C00400C01002010B5084883
:1013B0000849086002200968087207480749086060
:1013C000074808490860054909680868804710BD52
:1013D0007C010020000100206C000020040100209E
:1013E0009C0000200C01002010B5002422E1C2481E
:1013F000008800F00F00C149087008460078E8BB7B
:10140000BF480068BF4908800846008800F03000E7
:10141000BD490880BB48008800F44050B9490880A5
:10142000BA49D1F8001C89B24BF6BF7201EA02003A
:1014300080F4005080F0200040F4004141F0800131
:10144000B24AC2F8001CAC48008810F0100F38D126
:10145000AB48006880B248F60F7100EA01001146FF
:10146000C1F8000CFFF734FFA549096889B24BF6B3
:10147000BF7201EA0200A349098800E09AE011F472
:10148000805F01D080F480509E49098811F4005F8C
:1014900001D080F400509C49098811F0100F01D050
:1014A00080F010009849098811F0200F01D080F0D9
:1014B000200081B241F4004141F08001904A116066
:1014C00010BD8F48006884B214F4006F37D08C4888
:1014D0000068C0F30E0048F68F7100EA01008B49E6
:1014E000C1F8000CFFF77BFE8549096889B24BF60D
:1014F000BF7201EA02008349098811F4805F01D0BC
:1015000080F480507F49098811F4005F01D080F495
:1015100000507D49098811F0100F01D080F01000B3
:101520007949098811F0200F01D080F0200081B2A4
:1015300041F4004141F08001714A1160C0E714F4A8
:10154000004F77D06E480068C0F30E0048F68F71E8
:1015500000EA01006D49C1F8000CFFF7EAFE684996
:10156000096889B24BF6BF7201EA02006549098831
:1015700011F4805F01D080F480506249098811F431
:10158000005F01D080F400505F49098811F0100F0E
:1015900001D080F010005C49098811F0200F01D0C3
:1015A00080F0200081B241F4004141F08001544AB2
:1015B000116085E751480078544901EB8000D0F86C
:1015C000000C84B214F4004F18D04C48007801EBA2
:1015D0008000D0F8000CC0F30E0048F68F71084070
:1015E00046490978494A02EB8101C1F8000C434998
:1015F0000978491E464A52F82100804714F0800FAE
:1016000018D03E480078414901EB8000D0F8000C2A
:1016100080B248F60F710840384909783B4A02EB1E
:101620008101C1F8000C35490978491E394A52F840
:10163000210080473848006880B22F49088010F4A4
:10164000004F7FF4D4AE00BF3AE710B500244AE063
:1016500047F6FF70304908602748008800F00F0007
:101660002649087008460078284901EB8000D0F828
:10167000000C84B214F4004F19D02048007801EB1C
:101680008000D0F8000CC0F30E0048F68F710840BF
:101690001A4909781D4A02EB8101C1F8000C17496B
:1016A0000978491E1A4A52F8210080471BE014F0BD
:1016B000800F18D011480078144901EB8000D0F851
:1016C000000C80B248F60F7108400C4909780F4AA7
:1016D00002EB8101C1F8000C08490978491E0D4A46
:1016E00052F8210080470C48006880B20249088007
:1016F00010F4004FACD110BD58000020FC000020B9
:10170000005C004010010020120100200050004049
:101710003C00002020000020445C0040F0B514464E
:1017200004F1010C4FEA6C07DFF844C00CEB4103F5
:101730003D460AE00678401C90F800C046EA0C22BC
:1017400023F8022B9B1C401C6D1E002DF2D1F0BD16
:10175000F0B5561C7510064E06EB41042B4604E00E
:1017600080CC20F8017B401C5B1E002BF8D1F0BD23
:1017700000600040FF4908607047FE48006880B282
:101780007047FD4908607047FB48006880B27047A9
:10179000FA48006880B27047F94908607047F84815
:1017A000006880B270474FF6F8710140F54A116049
:1017B0007047F448006880B27047F34A02EB800239
:1017C000C2F8001C70470146EF4800EB8100D0F8DA
:1017D000000C80B27047EC4A02EB8002D2F8002C79
:1017E00092B248F68F131A400A43E74B03EB80038B
:1017F000C3F8002C70470146E34800EB8100D0F8A5
:10180000000C00F4C060704710B5DF4B03EB8003A1
:10181000D3F8003C9BB248F6BF7403EA040211F00F
:10182000100F01D082F0100211F0200F01D082F0D1
:10183000200242F4004343F08003D34C04EB8004C5
:10184000C4F8003C10BD10B5CF4B03EB8003D3F8B8
:10185000003C9BB24BF68F7403EA040211F4805FE4
:1018600001D082F4805211F4005F01D082F4005262
:1018700042F4004343F08003C34C04EB8004C4F8FB
:10188000003C10BD10B502460B461046FFF79BFF0B
:101890000446012B07D124F48050BB4901EB82019F
:1018A000C1F8000C08E0022B06D124F01000B64964
:1018B00001EB8201C1F8000C10BD0146B24800EBFB
:1018C0008100D0F8000C00F0300070470146AE48AF
:1018D00000EB8100D0F8000C00F440507047AA4A99
:1018E00002EB8002D2F8002C92B248F6BF7302EAF3
:1018F000030181F0100181F0200141F4004242F027
:101900008002A14B03EB8003C3F8002C70479E4A72
:1019100002EB8002D2F8002C92B24BF68F7302EAEF
:10192000030181F4805181F4005141F4004242F0FE
:101930008002954B03EB8003C3F8002C704792495B
:1019400001EB8001D1F8001C89B241F4807148F6A6
:101950008F72114048F2800211438B4A02EB8002E1
:10196000C2F8001C7047884901EB8001D1F8001CC7
:1019700089B248F68F62114048F280021143824AD0
:1019800002EB8002C2F8001C70477F4901EB800126
:10199000D1F8001C89B248F68F62114048F28002EB
:1019A0001143794A02EB8002C2F8001C7047764965
:1019B00001EB8001D1F8001C89B241F4807148F636
:1019C0008F72114048F2800211436F4A02EB80028D
:1019D000C2F8001C70476C4901EB8001D1F8001C73
:1019E00089B241F4807148F68F72114048F280024A
:1019F0001143654A02EB8002C2F8001C704762493D
:101A000001EB8001D1F8001C89B248F68F621140C9
:101A100048F2800211435C4A02EB8002C2F8001CCB
:101A200070470146584800EB8100D0F8000C00F0E8
:101A30003000102801D1012000E0002080B2704762
:101A40000146514800EB8100D0F8000C00F44050F2
:101A5000B0F5805F01D1012000E0002080B2704726
:101A6000494901EB8001D1F8001CC1F30E0148F691
:101A70008F721140444A02EB8002C2F8001C70478A
:101A8000414901EB8001D1F8001C89B248F60F7280
:101A900011403D4A02EB8002C2F8001C70473A49EF
:101AA00001EB8001D1F8001C89B248F68F72114019
:101AB0004CF280021143344A02EB8002C2F8001C4F
:101AC0007047314901EB8001D1F8001C89B248F61A
:101AD0008F72114048F2C00211432B4A02EB800280
:101AE000C2F8001C7047284901EB8001D1F8001CA6
:101AF00011F4804F10D0244901EB8001D1F8001C73
:101B000089B248F68F7211404CF2800211431E4A8E
:101B100002EB8002C2F8001C70471B4901EB8001F8
:101B2000D1F8001C11F0400F10D0174901EB8001D3
:101B3000D1F8001C89B248F68F72114048F2C002F9
:101B40001143114A02EB8002C2F8001C70470E4A92
:101B500002EB8002D2F8002C92B248F68F731A4042
:101B600048F280031A430A43074B03EB8003C3F890
:101B7000002C7047405C0040445C0040485C0040E2
:101B80004C5C0040505C0040005000400146FF4863
:101B900000EB8100D0F8000C00F00F00704710B58A
:101BA0004A105300FA4A126892B202EBC002F94C92
:101BB00044F8123010BD10B54A105300F44A1268B0
:101BC00092B202EBC00202F10402F24C44F812306D
:101BD00010BD0146EE48006880B200EBC100ED4A3E
:101BE00052F8100080B270470146E948006880B2A0
:101BF00000EBC10000F10400E64A52F8100080B288
:101C00007047E34A126892B202EBC00202F102028C
:101C1000E04B43F81210704702463E290BDD481195
:101C200011F01F0F01D1431E98B24FF4004343EA55
:101C30008023136007E0481011F0010F01D0431C0E
:101C400098B283021360704710B50246D04800680E
:101C500080B200EBC20000F10600CE4C04EB400362
:101C60003E290BDD481111F01F0F01D1441EA0B217
:101C70004FF4004444EA80241C6007E0481011F04F
:101C8000010F01D0441CA0B284021C6010BD0146AB
:101C9000BF48006880B200EBC10000F10200BD4AFD
:101CA00052F81000C0F3090070470146B8480068B8
:101CB00080B200EBC10000F10600B64A52F81000F5
:101CC000C0F30900704730B54B105C00B04B1B6887
:101CD0009BB203EBC003AF4D45F813404FEA6203DC
:101CE0004FEA4304A94BD3F8503C9BB203EBC0032B
:101CF00003F1040345F8134030BD10B54A105300FA
:101D0000A34A126892B202EBC002A24C44F812300D
:101D100010BD10B54A1053009D4A126892B202EBF2
:101D2000C00202F104029B4C44F8123010BD01467F
:101D30009748006880B200EBC100964A52F8100044
:101D400080B2704701469248006880B200EBC10043
:101D500000F104008F4A52F8100080B2704730B58D
:101D60000B46012B20D18A49096889B201EBC001D9
:101D700001F10201874D05EB41043E2A0BDD5111B3
:101D800012F01F0F01D14D1EA9B24FF4004545EAD4
:101D90008125256007E0511012F0010F01D04D1C84
:101DA000A9B28D0225600BE0022B09D178490968A0
:101DB00089B201EBC00101F10201764C44F8112017
:101DC000012B20D17249096889B201EBC00101F1F0
:101DD0000601704D05EB41043E2A0BDD511112F056
:101DE0001F0F01D14D1EA9B24FF4004545EA8125D0
:101DF000256007E0511012F0010F01D04D1CA9B26F
:101E00008D0225600BE0022B09D16149096889B276
:101E100001EBC00101F106015E4C44F8112030BD18
:101E200030B50346012920D15948006880B200EB43
:101E3000C30000F10200574D05EB40043E2A0BDDC4
:101E4000501112F01F0F01D1451EA8B24FF40045EA
:101E500045EA8025256007E0501012F0010F01D0FF
:101E6000451CA8B2850225600BE0022909D148482B
:101E7000006880B200EBC30000F10200454C44F85A
:101E8000102030BD30B50346012920D140480068FC
:101E900080B200EBC30000F106003E4D05EB4004AC
:101EA0003E2A0BDD501112F01F0F01D1451EA8B2C2
:101EB0004FF4004545EA8025256007E0501012F0F8
:101EC000010F01D0451CA8B2850225600BE0022954
:101ED00009D12F48006880B200EBC30000F1060072
:101EE0002C4C44F8102030BD01462948006880B2CF
:101EF00000EBC10000F10200264A52F81000C0F3C6
:101F00000900704701462248006880B200EBC1001A
:101F100000F106001F4A52F81000C0F30900704794
:101F200001461B48006880B200EBC10000F10600CA
:101F3000184A52F8100010F47C4F01D0012070476D
:101F40001348006880B200EBC10000F10200114AA2
:101F500052F810008005800D01D00220EFE700202C
:101F6000EDE7012918D1094A02EB8002D2F8002CD2
:101F700092B248F68F731A4048F2C0031A43034BDB
:101F800003EB8003C3F8002C19E000000050004070
:101F9000505C004000600040022910D10D4A02EB65
:101FA0008002D2F8002C92B248F68F731A404CF29D
:101FB00080031A43074B03EB8003C3F8002C7047E0
:101FC000024641EA022070470146CAB20B1243EAB8
:101FD000022070470050004000201E4908604FF466
:101FE00006401D490880084600881C49C1F8400C7D
:101FF0004FF0000070472DE9F04104460E461546AB
:1020000004F07F00FFF7E5FD0746AAB2014630461F
:10201000FFF784FB04F07F00A9B2FFF7F2FD002078
:10202000BDE8F0812DE9F04104460E46002504F09C
:102030007F00FFF73AFE054604F07F00FFF7D4FD6E
:1020400007462A4601463046FFF782FB2846BDE890
:10205000F0810000445C00400A0100200050004074
:1020600036490143364A1160704770B5002100239C
:102070000F22C4784CB3324C246804F4E064C4F5F5
:10208000E0644FEA1421C1F1040322FA01F244781A
:1020900004FA03F1847804EA020444EA01014FEAF5
:1020A0000111284C0678A155047804F01F054FF063
:1020B000010404FA05F405784FEA65154FF0E026AF
:1020C00006EB8505C5F8004109E0047804F01F051A
:1020D0000124AC401C4D0678761145F8264070BDB1
:1020E0001A4A0A4002431A4B1A60704741B1194A12
:1020F000126842EA00024FF0E023C3F8102D07E017
:10210000144A126822EA00024FF0E023C3F8102DAF
:102110007047042808D14FF0E021096941F004011B
:102120004FF0E022116107E04FF0E021096921F052
:1021300004014FF0E0221161704700000000FA0531
:102140000CED00E000E400E080E100E080FFFF1F14
:1021500008ED00E010ED00E010B50446CA488442E6
:1021600008D10121042000F024FB0021042000F00C
:1021700020FB46E0C548844208D10121082000F038
:1021800018FB0021082000F014FB3AE0C04884420C
:1021900008D10121102000F00CFB0021102000F0DC
:1021A00008FB2EE0BB48844208D10121202000F02A
:1021B00000FB0021202000F0FCFA22E0B648844217
:1021C00008D10121402000F0F4FA0021402000F065
:1021D000F0FA16E0B148844208D10121802000F0D5
:1021E000E8FA0021802000F0E4FA0AE0AC488442DA
:1021F00007D10121801500F0DCFA0021A01500F0C4
:10220000D8FA10BD10B50121084600F0D2FA00211D
:10221000012000F0CEFA10BD2DE9F0410246002564
:102220000026002000230024002791F803C00CF0B2
:102230000F0591F803C01CF0100F03D091F802C0F5
:102240004CEA0505B1F800C01CF0FF0F31D014684E
:1022500000202BE04FF0010C0CFA00F3B1F800C0A5
:102260000CEA03069E4220D183004FF00F0C0CFABB
:1022700003F7BC4305FA03FC4CEA040491F803C0DD
:10228000BCF1280F06D14FF0010C0CFA00FCC2F88B
:1022900014C00AE091F803C0BCF1480F05D14FF01B
:1022A000010C0CFA00FCC2F810C0401C0828D1D365
:1022B0001460B1F800C0BCF1FF0F34DD5468002099
:1022C0002EE000F1080C4FF0010808FA0CF3B1F809
:1022D00000C00CEA03069E4221D183004FF00F0C90
:1022E0000CFA03F7BC4305FA03FC4CEA040491F82A
:1022F00003C0BCF1280F05D100F1080C08FA0CF856
:10230000C2F8148091F803C0BCF1480F07D100F166
:10231000080C4FF0010808FA0CF8C2F81080401CB5
:102320000828CED35460BDE8F0814FF6FF710180DC
:10233000022181700421C170704702460020936819
:102340000B4201D0012000E0002070470146886860
:1023500080B2704702460020D3680B4201D00120B2
:1023600000E0002070470146C86880B270470161F4
:102370007047416170470AB1016100E041617047F7
:10238000C16070474FF480320A438261816182618B
:1023900082698269704702460020424B18684FF6F6
:1023A0008073184040EA021008433E4B18607047A3
:1023B0003D49C8617047F0B50A460023002400215A
:1023C000002500F00046B6F1004F02D1354EF1690C
:1023D00001E0344E7168C0F3034583B200F4401647
:1023E000B6F5401F08D121F070612E4E766826F0B8
:1023F00070662C4F7E6012E000F48016B6F5801FE8
:1024000006D1032606FA05F4A14341F0706106E007
:10241000460D360103FA06F6B14341F0706122B170
:10242000460D360103FA06F6314300F00046B6F1D8
:10243000004F02D11B4EF16101E01A4E7160F0BDF8
:1024400030B500228B071C0F0F2303FA04F2154B43
:1024500008338C1053F824309343124C08348D10F9
:1024600044F8253023468C1053F824308C07240F71
:1024700000FA04F423430B4C08348D1044F8253043
:1024800030BD0A490860704700080140000C014057
:10249000001001400014014000180140001C0140E0
:1024A000002001400000014000002042DC002042EA
:1024B000DB48006840F00100D949086008464068E0
:1024C000D8490840D649486008460068D6490840BF
:1024D000D34908600846006820F480200860084658
:1024E000406820F4FE0048604FF41F008860704789
:1024F000CB49096821F48031C94A11601146096845
:1025000021F480211160B0F5803F03D0B0F5802F19
:102510000ED106E0C249096841F48031C04A116019
:1025200007E0BF49096841F4A021BD4A116000E0FD
:1025300000BF00BF704710B50146002200230020F5
:102540004A11012A02D1B64C236806E0022A02D1C0
:10255000B34C236A01E0B24C636A01F01F0201240C
:1025600094401C4201D0012000E0002010BD70B555
:1025700000240025002600BF3120FFF7DCFF0646BF
:10258000641CB4F5A06F01D0002EF5D03120FFF708
:10259000D2FF08B1012500E00025284670BD0146A4
:1025A00000209F4A106820F0F80040EAC100106047
:1025B00070479E490860704702460020984B586853
:1025C00020F47C1042EA01031843954B5860704791
:1025D00096490866704701460020914A506820F0ED
:1025E00003000843506070478D48406800F00C00BD
:1025F0007047014600208A4A506820F0F0000843E6
:102600005060704701460020854A506820F4E06021
:1026100008435060704701460020814A506820F40A
:10262000605040EAC1005060704729B17C4A527A3C
:1026300002437B4B5A7206E0794A527AC343DBB2BB
:102640001A40774B5A7270477949086070470146C3
:102650000020734A506820F440400843506070479F
:102660000021744A11706E4A82F82010012802D0AD
:10267000042808D103E001216E4A117004E005210D
:102680006C4A117000E000BF00BF70476A490860E3
:1026900070476349096A0143614A1162704767499B
:1026A0000860704730B500210022002400235C4DF3
:1026B0006D6805F00C0121B1042905D0082923D14A
:1026C00005E05F4D056022E05E4D05601FE0544D62
:1026D0006D6805F47012524D6D6805F48034022562
:1026E00005EB92421CB9584D554305600BE04C4D2B
:1026F0006D6815F4003F03D0514D5543056002E06D
:10270000504D5543056002E04D4D056000BF00BFD0
:10271000434D6D6805F0F00109094C4D6B5C05688F
:10272000DD4045603E4D6D6805F4E061090A474DA6
:102730006B5C4568DD408560394D6D6805F460511E
:10274000C90A424D6B5C4568DD40C560344D6D681B
:1027500005F44041890B3E4D6B5CC568B5FBF3F554
:10276000056130BD29B12E4A526902432C4B5A6192
:1027700004E02B4A52698243294B5A61704729B1C0
:10278000274A92690243264B9A6104E0244A9269DF
:102790008243234B9A61704729B1214AD26902438F
:1027A0001F4BDA6104E01E4AD26982431C4BDA6196
:1027B000704729B11A4AD2680243194BDA6004E023
:1027C000174AD2688243164BDA60704729B1144A1F
:1027D00012690243124B1A6104E0114A12698243E2
:1027E0000F4B1A6170471B49086070470F49C86456
:1027F00070470B49C87170470948406A40F08070C3
:1028000007494862704701460020054A92680A421B
:1028100001D0012000E00020704701498872704714
:10282000001002400000FFF8FFFFF6FE00004242E9
:10283000D800424220100240800442423C044242FE
:1028400000127A000024F40000093D001401002069
:10285000240100204004424200210020674A1268FF
:1028600042F48032654B1A6000BF644A126802F479
:102870000030491C10B9B1F5A06FF6D15F4A12685B
:1028800012F4003F01D0012000E00020012842D1D5
:102890005B4A126842F01002594B1A601A461268DD
:1028A00022F003021A601A46126842F002021A600D
:1028B000524A5268514B5A601A4652685A601A4638
:1028C000526842F480625A601A46526822F47C12BE
:1028D0005A601A46526842F4E8125A601A46126860
:1028E00042F080721A6000BF444A126812F0007F02
:1028F000FAD0424A526822F00302404B5A601A460C
:10290000526842F002025A6000BF3C4A526802F02C
:102910000C02082AF9D1704710B5FFF79DFF10BDD2
:1029200010B53648006840F0010034490860084698
:1029300040683449084031494860084600683249D7
:1029400008402E4908600846006820F4802008608E
:102950000846406820F4FE0048604FF41F0088607D
:10296000FFF7DAFF4FF000602849086010BD10B58E
:10297000002100200022214B5B6803F00C0121B1F3
:10298000042906D0082928D107E0214B214C2360D7
:1029900027E0214B1F4C236023E0184B5B6803F4B6
:1029A0007010164B5B6803F48032022303EB9040F7
:1029B00022B91A4B4343174C23600DE00F4B5B6861
:1029C00013F4003F04D0124B4343124C236003E046
:1029D000114B43430F4C236003E00D4B0D4C236020
:1029E00000BF00BF054B5B68C3F303130C4CE15CF5
:1029F000084B1B68CB40074C236010BD0010024001
:102A0000002002400000FFF8FFFFF6FE08ED00E0A6
:102A100000127A00280100200024F40000093D0083
:102A20002C0100200948804709480047FEE7FEE7DF
:102A3000FEE7FEE7FEE7FEE7FEE7FEE7FEE7FEE76E
:102A400004480549054A064B704700002129000843
:102A500031010008F8010020F8070020F8030020E9
:102A6000F803002010B5431C02E010F8011B71B1FF
:102A70008107FAD14FF0013202C88C1A8C4314EA54
:102A8000C211F9D0C01A0A0603D0C01E10BDC01A68
:102A900010BD0A0401D0801E10BD0902FCD0401EEA
:102AA00010BD704770477047754600F029F8AE4674
:102AB00005006946534620F00700854618B020B54A
:102AC000FFF7BEFFBDE820404FF000064FF00007C3
:102AD0004FF000084FF0000B21F00701AC46ACE8C6
:102AE000C009ACE8C009ACE8C009ACE8C0098D4633
:102AF00070470446AFF300802046FDF782FB0000DC
:102B0000004870479801002001487047704700BF97
:102B10009C01002001491820ABBEFEE72600020000
:102B2000704710B5FFF7F0FF4FF00001016010BDD6
:102B3000120100020200004083044057000201021B
:102B4000030109024300020100C032090400000130
:102B500002020100052400100105240100010424E3
:102B600002020524060001070582030800FF09048C
:102B70000100020A000000070503024000000705EB
:102B80008102400000040309042603530054004D51
:102B9000006900630072006F0065006C00650063EF
:102BA00000740072006F006E0069006300730032F1
:102BB00003530054004D00330032002000560069DA
:102BC0000072007400750061006C00200043004F2B
:102BD000004D00200050006F0072007400200020A3
:102BE00000000000042C0008000000203C01000050
:102BF0006C010008942C00083C010020BC06000079
:102C0000C8010008141A03531254124D1233123221
:102C1000123102113013FB030C1C087913040A1142
:102C2000E1249133C20112081A04071379041B0826
:102C3000AF04139D051B08B3041ADD041333061BF0
:102C40000893041A57041A65041A73044132402980
:102C5000481A87240916781A951C13302B3308124A
:102C60001A420832431A850832041A890832261A91
:102C7000AF08623273201A299201202D0102030449
:102C800004100906070809020406082BA24A57790E
:042C90001C291800E3
:0400000508000131BD
:00000001FF
